:020000040000FA
:10000000680500206D0200008102000083020000EC
:100010008502000087020000890200000000000045
:100020000000000000000000000000008B02000043
:100030008D020000000000008F020000910200000D
:10004000930200009302000093020000930200005C
:10005000930200009302000093020000930200004C
:10006000930200009302000093020000930200003C
:10007000930200009302000093020000930200002C
:10008000930200009302000093020000930200001C
:10009000930200009302000093020000930200000C
:1000A00093020000930200009302000093020000FC
:1000B00093020000930200009302000093020000EC
:1000C00093020000930200009302000093020000DC
:1000D00093020000930200009302000093020000CC
:1000E00093020000930200009302000093020000BC
:1000F00093020000930200009302000093020000AC
:10010000930200009302000093020000930200009B
:10011000930200009302000093020000930200008B
:10012000930200009302000093020000930200007B
:10013000930200009302000093020000930200006B
:1001400000000000000000000000000000000000AF
:10015000930200009302000093020000930200004B
:10016000000000000000000000000000000000008F
:10017000000000000000000000000000000000007F
:10018000000000000000000000000000000000006F
:10019000000000000000000000000000000000005F
:1001A000000000000000000000000000000000004F
:1001B00093020000930200009302000093020000EB
:1001C00093020000930200009302000093020000DB
:1001D00093020000930200009302000093020000CB
:1001E00093020000930200009302000093020000BB
:1001F00093020000930200009302000093020000AB
:10020000930200009302000093020000000000002F
:10021000930200009302000093020000930200008A
:10022000930200009302000093020000930200007A
:10023000930200009302000093020000930200006A
:10024000930200009302000093020000930200005A
:10025000930200009302000093020000930200004A
:100260009302000093020000930200004EF68850B3
:10027000CEF20000016841F47001016000F00AB89C
:10028000FEE7FEE7FEE7FEE7FEE7FEE7FEE7FEE746
:10029000FEE7FEE700F002F800F03CF80AA090E864
:1002A000000C82448344AAF10107DA4501D100F031
:1002B00031F8AFF2090EBAE80F0013F0010F18BFC2
:1002C000FB1A43F00103184784080000A40800004B
:1002D000103A24BF78C878C1FAD8520724BF30C872
:1002E00030C144BF04680C60704700000023002444
:1002F00000250026103A28BF78C1FBD8520728BF36
:1003000030C148BF0B6070471FB500F01AFC1FBD1D
:1003100010B510BD00F0DEFB1146FFF7F5FF00F051
:10032000C8FA00F0FCFB03B4FFF7F2FF03BC00F0D7
:1003300001FC000072B6704762B670474FF0400093
:1003400080F311887047EFF3108072B6704780F326
:100350001088704730BF704702480349014A034B79
:100360007047000068010020680500206801002037
:1003700043F67F60FE4908634863FE4908634863AB
:100380007047FD4A126842F00202FB4B1A600022DD
:10039000FA4BDA6004221A6002225A600F229A6233
:1003A00001225A621A46D26842F00102DA60002144
:1003B00009E000BFF14AD26912F0010FFAD0012220
:1003C000EE4B5A62491C8142F3DB704730B5EC4872
:1003D000006820F01000EB49C1F8FC034FF00A0060
:1003E000FFF7CFFFE748D0F8FC0340F01000E549E5
:1003F000C1F8FC030A20FFF7C4FFE248D0F8FC0371
:1004000020F01000DF49C1F8FC031CE00420DE49A5
:10041000486200BFDC48C06910F0040FFAD0DB4826
:10042000006810F0010F0ED0D748846C0420D64924
:10043000486200BFD448C06910F0040FFAD0D24817
:10044000856C281B30BDE1E700B5FFF7BFFFD04941
:1004500008600846006842F681114843CD49B0FB68
:10046000F1F0CD49086008460068052801D8FFF77B
:100470007FFF00BD11B5002402E0FFF7E5FF641C1B
:10048000009800EB4000A042F7D818BD00B5FFF778
:10049000DBFFC1480068052813D943F67F60B449E3
:1004A00008634FF4FA50486343F67F60B14908632C
:1004B0004FF4FA504863B948FFF7DCFFFFF758FFE5
:1004C00001E0FFF755FF00BD00B5FFF7BDFFB248E3
:1004D0000068052812D942F6E060A549486343F652
:1004E0007F60A4494863AE48FFF7C4FFFFF7CEFF23
:1004F000AC48FFF7BFFFFFF73BFF01E0FFF738FF16
:1005000000BD00B5FFF7A0FFA3480068052812D979
:1005100043F67F609649486342F6E0609549486338
:10052000A148FFF7A7FFFFF7B1FFA048FFF7A2FF21
:10053000FFF71EFF01E0FFF71BFF00BD00B5FFF74F
:1005400083FF9548006805280BD942F6E06088498A
:100550004863884948639148FFF78CFFFFF708FF1D
:1005600001E0FFF705FF00BD00B5FFF76DFF8A480A
:10057000006805280AD900207D4948637D49486301
:100580008648FFF777FFFFF7F3FE01E0FFF7F0FE85
:1005900000BD00B5FFF758FF7F48006805280BD95C
:1005A0004FF47A6072494863724948637B48FFF7A9
:1005B00061FFFFF7DDFE01E0FFF7DAFE00BD00B5E9
:1005C0004FF4FA506A49086343F67F6048634FF47A
:1005D000FA506849086343F67F6048636F48FFF745
:1005E00049FFFFF7C5FE00BD70B5002500244FF49C
:1005F00080716F4800F0E2F915E000BF6D48806936
:1006000010F0100FFAD16B480068C4B22A2C00D148
:1006100009E0232C01D0FE2D00DB05E028466D1CEF
:1006200063490C5400BFE8E700BF614870BD524801
:10063000006840F00800504908604E48C06800203B
:100640004C49C8600846006840F00400086008464D
:10065000406840F00A0048600846806840F00A00A0
:1006600088604FF47A508862C862401E086348630D
:100670000846C06840F2011108433E49C86070470F
:100680003D48006840F004003B4908603848C068B5
:1006900000203749C8600846006840F00400086040
:1006A0000846406840F00A0048600846806840F00C
:1006B0000A0088604FF47A508862C862401E08635E
:1006C00048630846C06840F2011108432849C860E1
:1006D00070472948006840F00100274908602A480F
:1006E000C06800202849C8600846006840F004003F
:1006F00008600846406840F0170048600846C06837
:1007000040F00C00C8600846C06840F00100C860B6
:10071000704708B51848001D006840F002001649EF
:10072000091D08600846006800902348006840F0F2
:100730000F00214908602048FC38006840F00F0095
:100740001D49FC3908601C481030006847F2777179
:1007500008431949103108601848006840F00F003C
:1007600016490860FFF7B5FFFFF78AFF28E0000091
:10077000002003400030034004E60F400010034017
:10078000FC4302400040024000000340FC53024092
:10079000040000208096980000000020C027090077
:1007A000F8AC1400E0220200804F12004C1102004D
:1007B00008000020000001401C550040005400408B
:1007C000FFF735FF08BD6148006840F030005F4921
:1007D00008605F485F4908600120091D08605D48A6
:1007E000001F006840F001005A49091F08605A487C
:1007F000006840F001005849086056480C30006815
:1008000040F0070053490C31086053482038006815
:1008100020F001005049203908605048006840F03D
:1008200010004E4908604E48006840F010004C49E6
:100830000860704745481030006840F01000434998
:10084000103108604148006840F004003F490860EA
:100850004448006B40F201318843424908636820F4
:1008600048620B2088626020C8620846006B40F234
:10087000013108433B4908633B48006840F03000C1
:10088000394908603848FC30006840F0300036498B
:10089000FC3108603548006820F47F0000F58810BE
:1008A00032490860081F006820F03000091F086006
:1008B0007047FFF7BFFFFFF786FFFFF72AFF43E010
:1008C000FFF7C2FDFFF790FE044629A1204600F085
:1008D00097F810B9FFF7DAFD36E027A1204600F0BF
:1008E0008FF810B9FFF76BFE2EE026A1204600F02E
:1008F00087F810B9FFF74DFE26E024A1204600F04E
:100900007FF810B9FFF730FE1EE023A1204600F06B
:1009100077F810B9FFF712FE16E022A1204600F08A
:100920006FF810B9FFF7EDFD0EE020A1204600F0B2
:1009300067F810B9FFF7C8FD06E01EA1204600F0D9
:100940005FF808B9FFF714FDBAE7704708E60F40F3
:100950004B434F4C20550240205402401C4502405E
:100960000044024000000140206400402C6500402B
:10097000666F7277617264006261636B7761726443
:1009800000000000676F206661737400676F206667
:100990006173746572000000736C6F7720646F7709
:1009A0006E0000006C656674000000007269676884
:1009B0007400000073746F70000000004FF00002BC
:1009C0000429C0F0128010F0030C00F05E80CCF11E
:1009D000040CBCF1020F18BF00F8012BA8BF20F8CF
:1009E000022BA1EB0C0100F050B85FEAC17C24BFE0
:1009F00000F8012B00F8012B48BF00F8012B7047CD
:100A00004FF0013C50F8042B51F8043B9A4221D19D
:100A1000A2EB0C03934313EACC1317D150F8042B29
:100A200051F8043B9A4215D1A2EB0C03934313EA0D
:100A3000CC130BD150F8042B51F8043B9A4209D146
:100A4000A2EB0C03934313EACC13DBD04FF000006E
:100A5000704700BFD01A01BAB1FA81F101F0180154
:100A600022FA01F0CB40C1F12001DBB2C0B2C01AC2
:100A70002CFA01F3D11A914311EAC311E6D1704760
:100A80007047704770474FF0000200B51346944618
:100A90009646203922BFA0E80C50A0E80C50B1F1D6
:100AA0002001BFF4F7AF090728BFA0E80C5048BFEA
:100AB0000CC05DF804EB890028BF40F8042B08BF88
:100AC000704748BF20F8022B11F0804F18BF00F884
:100AD000012B7047754600F029F8AE4605006946BF
:100AE000534620F00700854618B020B5FFF734FCC8
:100AF000BDE820404FF000064FF000074FF000081F
:100B00004FF0000B21F00701AC46ACE8C009ACE89F
:100B1000C009ACE8C009ACE8C0098D46704704467E
:100B2000AFF300802046FFF7FEFB0000004870474F
:100B30000801002001491820ABBEFEE72600020094
:100B400070474FF04070E1EE100A70476C0B0000E8
:100B50000000002008000000D0020000740B00001C
:100B60000800002060050000EC020000000000000A
:040B70000000000081
:040000050000026D88
:00000001FF
